:020000040800F2
:1000000000280020A5050008C9040008D104000844
:10001000D9040008E1040008E90400080000000019
:10002000000000000000000000000000F1040008D3
:10003000FD0400080000000009050008150500087F
:10004000ED050008ED050008ED050008ED050008C8
:10005000ED050008ED050008ED0500082105000884
:100060002F050008ED050008ED050008ED05000866
:10007000ED050008ED050008ED050008ED05000898
:10008000ED050008ED050008ED050008ED05000888
:10009000ED050008ED050008ED050008ED05000878
:1000A000ED050008ED050008ED050008ED05000868
:1000B000ED050008ED05000800000000ED05000852
:1000C000ED0500080000000000000000ED0500083C
:1000D00000000000ED050008ED050008000000002C
:1000E000ED050008ED050008ED0500080000000022
:1000F0000000000000000000000000000000000000
:0C01000000000000000000005FF808F1A3
:10010C0010B5054C237833B9044B13B10448AFF345
:10011C0000800123237010BD64000020000000004B
:10012C00CC14000808B5034B1BB103490348AFF3CB
:10013C00008008BD0000000068000020CC140008FE
:10014C0080B582B000AF00F04DFA00F06DF800F011
:10015C00AFF8012201212E4800F06BFD0122022193
:10016C002B4800F066FD01220421294800F061FDB6
:10017C0001220821264800F05CFD012210212448B0
:10018C0000F057FD01222021214800F052FD0022F1
:10019C0040211F4800F04DFD01211E4800F032FDAA
:1001AC000346002B02D11C4B01221A701A4B1B78F0
:1001BC00012BF1D100237B6015E0184A7B6832F8E3
:1001CC001310174B1B781846164A0346DB001B1AF4
:1001DC001A447B6813441B781A460D4800F029FD1D
:1001EC007B6801337B607B68062BE6DD4FF4FA708D
:1001FC0000F05AFA0A4B1B780133DAB2084B1A702A
:10020C00074B1B78092BC7D9054B00221A70C3E783
:10021C0000080140000C0140800000204800002034
:10022C00810000200000002080B590B000AF07F1E5
:10023C00180328220021184601F016F93B1D002254
:10024C001A605A609A60DA601A610123BB614FF43C
:10025C008033FB6100233B620123BB6202237B637F
:10026C004FF48033BB634FF48023FB6307F1180317
:10027C00184600F00FFD0346002B01D000F0E6F805
:10028C000F237B600223BB600023FB6000233B61D8
:10029C0000237B613B1D0021184600F07DFF0346C7
:1002AC00002B01D000F0D2F800BF4037BD4680BD16
:1002BC0080B588B000AF07F1100300221A605A60B5
:1002CC009A60DA60314B9B69304A43F020039361AA
:1002DC002E4B9B6903F02003FB60FB682B4B9B6947
:1002EC002A4A43F004039361284B9B6903F00403EF
:1002FC00BB60BB68254B9B69244A43F008039361A0
:10030C00224B9B6903F008037B607B6800227F21F2
:10031C001F4800F08EFC7F233B6101237B6100238F
:10032C00BB610223FB6107F110031946184800F06A
:10033C00EDFA01233B6100237B610123BB6107F1D3
:10034C0010031946134800F0E1FA06233B61124BE7
:10035C007B610123BB6107F1100319460D4800F0C6
:10036C00D5FA00220021072000F099FA072000F0AE
:10037C00B2FA00220021082000F091FA082000F0C7
:10038C00AAFA00BF2037BD4680BD00BF0010024056
:10039C0000080140000C01400000211080B584B021
:1003AC0000AF0346FB8000227F21234800F041FC74
:1003BC00FB88022B1CD1214B00221A70204B0022EF
:1003CC001A700023FB600FE01E4AFB6832F8131012
:1003DC001D4AFB68134407331B781A46164800F075
:1003EC0028FCFB680133FB60FB68062BECDD1EE090
:1003FC00FB88042B1BD1114B00221A70104B0022CE
:10040C001A700023BB600FE00E4ABB6832F8131061
:10041C000D4ABB6813443F331B781A46064800F05C
:10042C0008FCBB680133BB60BB68062BECDD00BF6E
:10043C001037BD4680BD00BF000801408000002081
:10044C0081000020480000200000002080B400AF94
:10045C0072B600BF00BFFDE780B485B000AF154B8E
:10046C009B69144A43F001039361124B9B6903F09F
:10047C000103BB60BB680F4BDB690E4A43F0805332
:10048C00D3610C4BDB6903F080537B607B680A4BB8
:10049C005B68FB60FB6823F0E063FB60FB6843F088
:1004AC008063FB60044AFB68536000BF1437BD4691
:1004BC0080BC7047001002400000014080B400AFC7
:1004CC0000BFFDE780B400AF00BFFDE780B400AF14
:1004DC0000BFFDE780B400AF00BFFDE780B400AF04
:1004EC0000BFFDE780B400AF00BFBD4680BC7047C5
:1004FC0080B400AF00BFBD4680BC704780B400AF75
:10050C0000BFBD4680BC704780B500AF00F0B0F8AE
:10051C0000BF80BD80B500AF022000F0A3FB00BF80
:10052C0080BD80B500AF042000F09CFB00BF80BDF7
:10053C0080B400AF154B1B68144A43F001031360E1
:10054C00124B5A681149124B13404B600F4B1B68EE
:10055C000E4A23F0847323F4803313600B4B1B6817
:10056C000A4A23F480231360084B5B68074A23F480
:10057C00FE035360054B4FF41F029A60054B4FF07E
:10058C0000629A6000BFBD4680BC704700100240FC
:10059C000000FFF800ED00E0002103E00B4B5B587E
:1005AC00435004310A480B4B42189A42F6D30A4A7C
:1005BC0002E0002342F8043B084B9A42F9D3FFF7C0
:1005CC00B7FF00F059FFFFF7BBFD70470C15000893
:1005DC00000000206400002064000020880000203F
:1005EC00FEE7000080B500AF084B1B68074A43F0DC
:1005FC0010031360032000F047F90F2000F008F8F7
:10060C00FFF72AFF0023184680BD00BF00200240E0
:10061C0080B582B000AF7860124B1A68124B1B7811
:10062C0019464FF47A73B3FBF1F3B2FBF3F31846AC
:10063C0000F05FF90346002B01D001230EE07B682C
:10064C000F2B0AD8002279684FF0FF3000F027F901
:10065C00064A7B681360002300E001231846083724
:10066C00BD4680BD58000020600000205C000020CA
:10067C0080B400AF054B1B781A46054B1B6813441E
:10068C00034A136000BFBD4680BC70476000002069
:10069C008400002080B400AF024B1B681846BD4696
:1006AC0080BC70478400002080B584B000AF7860B7
:1006BC00FFF7F0FFB8607B68FB60FB68B3F1FF3FAE
:1006CC0005D00A4B1B781A46FB681344FB6000BF2D
:1006DC00FFF7E0FF0246BB68D31AFA689A42F7D8D4
:1006EC0000BF00BF1037BD4680BD00BF60000020BA
:1006FC0080B485B000AF78607B6803F00703FB60C3
:10070C000C4BDB68BB60BA684FF6FF031340BB6051
:10071C00FB681A02BB68134343F0BF6343F4003316
:10072C00BB60044ABB68D36000BF1437BD4680BCB5
:10073C00704700BF00ED00E080B400AF044BDB68F5
:10074C001B0A03F007031846BD4680BC704700BF68
:10075C0000ED00E080B483B000AF0346FB7197F965
:10076C000730002B0BDBFB7903F01F02064997F9CE
:10077C0007305B09012000FA02F241F8232000BF88
:10078C000C37BD4680BC704700E100E080B483B0FC
:10079C0000AF03463960FB7197F90730002B0ADB79
:1007AC003B68DAB20C4997F907301201D2B20B440C
:1007BC0083F800230AE03B68DAB20849FB7903F0BE
:1007CC000F03043B1201D2B20B441A7600BF0C3754
:1007DC00BD4680BC704700BF00E100E000ED00E0CA
:1007EC0080B489B000AFF860B9607A60FB6803F040
:1007FC000703FB61FB69C3F10703042B28BF042328
:10080C00BB61FB690433062B02D9FB69033B00E097
:10081C0000237B614FF0FF32BB6902FA03F3DA432A
:10082C00BB681A407B699A404FF0FF317B6901FA33
:10083C0003F3D9437B680B40134318462437BD465A
:10084C0080BC704780B582B000AF78607B68013B9C
:10085C00B3F1807F01D301230FE00A4A7B68013B8F
:10086C0053600F214FF0FF30FFF790FF054B002234
:10087C009A60044B07221A60002318460837BD46BD
:10088C0080BD00BF10E000E080B582B000AF7860A2
:10089C007868FFF72DFF00BF0837BD4680BD80B5D7
:1008AC0086B000AF0346B9607A60FB7300237B61AE
:1008BC00FFF742FF78617A68B9687869FFF790FFB3
:1008CC00024697F90F3011461846FFF75FFF00BF3D
:1008DC001837BD4680BD80B582B000AF0346FB71B2
:1008EC0097F907301846FFF735FF00BF0837BD46AC
:1008FC0080BD80B582B000AF78607868FFF7A2FF4A
:10090C00034618460837BD4680BD000080B48BB046
:10091C0000AF7860396000237B6200233B6261E1A9
:10092C0001227B6A02FA03F3FB613B681B68FA69DC
:10093C001340BB61BA69FB699A4240F050813B6835
:10094C005B68974A93425ED0954A934275D8954A14
:10095C00934258D0934A93426FD8934A934252D0C1
:10096C00914A934269D8914A93424CD08F4A934210
:10097C0063D88F4A934246D08D4A93425DD8122B4E
:10098C002AD8122B59D801A252F823F0130A0008C6
:10099C00ED090008FF090008410A0008470A000891
:1009AC00470A0008470A0008470A0008470A0008D7
:1009BC00470A0008470A0008470A0008470A0008C7
:1009CC00470A0008470A0008470A0008470A0008B7
:1009DC00F5090008090A0008764A934213D02CE066
:1009EC003B68DB683B6229E03B68DB6804333B62B5
:1009FC0024E03B68DB6808333B621FE03B68DB6844
:100A0C000C333B621AE03B689B68002B02D1042339
:100A1C003B6213E03B689B68012B05D108233B62CA
:100A2C007B68FA691A6109E008233B627B68FA6902
:100A3C005A6103E000233B6200E000BFBB69FF2B5F
:100A4C0001D87B6801E07B6804337B61BB69FF2BB9
:100A5C0002D87B6A9B0002E07B6A083B9B003B61EF
:100A6C007B691A680F213B6901FA03F3DB431A40D7
:100A7C00396A3B6901FA03F31A437B691A603B68D4
:100A8C005B6803F08053002B00F0A9804A4B9B69F4
:100A9C00494A43F001039361474B9B6903F00103FF
:100AAC00BB60BB68454A7B6A9B08023352F8233013
:100ABC00FB607B6A03F003039B000F2202FA03F333
:100ACC00DB43FA681340FB607B683D4A93420DD0D0
:100ADC007B683C4A934207D07B683B4A934201D1E6
:100AEC00022304E0032302E0012300E000237A6ADE
:100AFC0002F0030292009340FA681343FB602F4903
:100B0C007B6A9B080233FA6841F823203B685B68D8
:100B1C0003F48033002B06D02C4B1A682B49BB698D
:100B2C0013430B6006E0294B1A68BB69DB4327496A
:100B3C0013400B603B685B6803F40033002B06D05A
:100B4C00224B5A682149BB6913434B6006E01F4B8B
:100B5C005A68BB69DB431D4913404B603B685B68BB
:100B6C0003F48013002B06D0184B9A681749BB6905
:100B7C0013438B6006E0154B9A68BB69DB43134942
:100B8C0013408B603B685B6803F40013002B1FD091
:100B9C000E4BDA680D49BB691343CB601FE000BFF5
:100BAC000000321000003110000022100000211053
:100BBC000000121000001110001002400000014053
:100BCC0000080140000C01400010014000040140ED
:100BDC000B4BDA68BB69DB4309491340CB607B6A7A
:100BEC0001337B623B681A687B6A22FA03F3002BA1
:100BFC007FF496AE00BF00BF2C37BD4680BC70475B
:100C0C000004014080B485B000AF78600B467B8057
:100C1C007B689A687B881340002B02D00123FB73FE
:100C2C0001E00023FB73FB7B18461437BD4680BCE8
:100C3C00704780B483B000AF78600B467B8013465E
:100C4C007B707B78002B03D07A887B681A6103E079
:100C5C007B881A047B681A6100BF0C37BD4680BCC8
:100C6C007047000080B582B000AF0346FB80084B94
:100C7C005A69FB881340002B06D0054AFB88536148
:100C8C00FB881846FFF78AFB00BF0837BD4680BDBE
:100C9C000004014080B586B000AF78607B68002B03
:100CAC0001D1012372E27B681B6803F00103002B66
:100CBC0000F08780924B5B6803F00C03042B0CD084
:100CCC008F4B5B6803F00C03082B12D18C4B5B68C9
:100CDC0003F48033B3F5803F0BD1894B1B6803F4CD
:100CEC000033002B6CD07B685B68002B68D1012330
:100CFC004CE27B685B68B3F5803F06D1804B1B6888
:100D0C007F4A43F4803313602EE07B685B68002BD2
:100D1C000CD17B4B1B687A4A23F480331360784BDD
:100D2C001B68774A23F4802313601DE07B685B68A3
:100D3C00B3F5A02F0CD1724B1B68714A43F480237E
:100D4C0013606F4B1B686E4A43F4803313600BE0E7
:100D5C006B4B1B686A4A23F480331360684B1B6827
:100D6C00674A23F4802313607B685B68002B13D0E5
:100D7C00FFF790FC386108E0FFF78CFC02463B69FA
:100D8C00D31A642B01D9032300E25D4B1B6803F4D7
:100D9C000033002BF0D014E0FFF77CFC386108E046
:100DAC00FFF778FC02463B69D31A642B01D9032365
:100DBC00ECE1534B1B6803F40033002BF0D100E043
:100DCC0000BF7B681B6803F00203002B63D04C4B05
:100DDC005B6803F00C03002B0BD0494B5B6803F0F2
:100DEC000C03082B1CD1464B5B6803F48033002B9F
:100DFC0016D1434B1B6803F00203002B05D07B6814
:100E0C001B69012B01D00123C0E13D4B1B6823F072
:100E1C00F8027B685B69DB00394913430B603AE0ED
:100E2C007B681B69002B20D0364B01221A60FFF720
:100E3C0031FC386108E0FFF72DFC02463B69D31A00
:100E4C00022B01D90323A1E12D4B1B6803F00203F4
:100E5C00002BF0D02A4B1B6823F0F8027B685B69EF
:100E6C00DB00274913430B6015E0264B00221A6068
:100E7C00FFF710FC386108E0FFF70CFC02463B69F9
:100E8C00D31A022B01D9032380E11D4B1B6803F0FD
:100E9C000203002BF0D17B681B6803F00803002BC6
:100EAC003AD07B689B69002B19D0174B01221A6032
:100EBC00FFF7F0FB386108E0FFF7ECFB02463B69FB
:100ECC00D31A022B01D9032360E10D4B5B6A03F0AB
:100EDC000203002BF0D0012000F0A8FA1CE00A4B12
:100EEC0000221A60FFF7D6FB38610FE0FFF7D2FB48
:100EFC0002463B69D31A022B08D9032346E100BFF3
:100F0C00001002400000424280044242924B5B6A55
:100F1C0003F00203002BE9D17B681B6803F0040388
:100F2C00002B00F0A6800023FB758B4BDB6903F0D4
:100F3C008053002B0DD1884BDB69874A43F08053DB
:100F4C00D361854BDB6903F08053BB60BB68012325
:100F5C00FB75824B1B6803F48073002B18D17F4BFD
:100F6C001B687E4A43F480731360FFF793FB386170
:100F7C0008E0FFF78FFB02463B69D31A642B01D9BB
:100F8C00032303E1754B1B6803F48073002BF0D033
:100F9C007B68DB68012B06D16F4B1B6A6E4A43F0F2
:100FAC00010313622DE07B68DB68002B0CD16A4BCC
:100FBC001B6A694A23F001031362674B1B6A664A7A
:100FCC0023F0040313621CE07B68DB68052B0CD157
:100FDC00614B1B6A604A43F0040313625E4B1B6A4D
:100FEC005D4A43F0010313620BE05B4B1B6A5A4AE8
:100FFC0023F001031362584B1B6A574A23F0040376
:10100C0013627B68DB68002B15D0FFF743FB38615C
:10101C000AE0FFF73FFB02463B69D31A41F28832E4
:10102C00934201D90323B1E04B4B1B6A03F002033B
:10103C00002BEED014E0FFF72DFB38610AE0FFF730
:10104C0029FB02463B69D31A41F28832934201D9FB
:10105C0003239BE0404B1B6A03F00203002BEED1F1
:10106C00FB7D012B05D13C4BDB693B4A23F08053C4
:10107C00D3617B68DB69002B00F08780364B5B68A3
:10108C0003F00C03082B61D07B68DB69022B46D183
:10109C00334B00221A60FFF7FDFA386108E0FFF7C6
:1010AC00F9FA02463B69D31A022B01D903236DE0EE
:1010BC00294B1B6803F00073002BF0D17B681B6A73
:1010CC00B3F5803F08D1244B5B6823F400327B6876
:1010DC009B68214913434B601F4B5B6823F47412CC
:1010EC007B68196A7B685B6A0B431B4913434B6033
:1010FC001B4B01221A60FFF7CDFA386108E0FFF7AD
:10110C00C9FA02463B69D31A022B01D903233DE0ED
:10111C00114B1B6803F00073002BF0D035E0104B23
:10112C0000221A60FFF7B6FA386108E0FFF7B2FA4E
:10113C0002463B69D31A022B01D9032326E0064B46
:10114C001B6803F00073002BF0D11EE07B68DB6999
:10115C00012B07D1012319E0001002400070004060
:10116C00600042420B4B5B68FB60FB6803F480320F
:10117C007B681B6A9A4206D1FB6803F470127B6889
:10118C005B6A9A4201D0012300E00023184618370D
:10119C00BD4680BD0010024080B584B000AF7860C1
:1011AC0039607B68002B01D10123D0E06A4B1B68AE
:1011BC0003F007033A689A4210D9674B1B6823F077
:1011CC00070265493B6813430B60634B1B6803F0D4
:1011DC0007033A689A4201D00123B8E07B681B6888
:1011EC0003F00203002B20D07B681B6803F0040380
:1011FC00002B05D0594B5B68584A43F4E0635360AD
:10120C007B681B6803F00803002B05D0534B5B680D
:10121C00524A43F460535360504B5B6823F0F00226
:10122C007B689B684D4913434B607B681B6803F0DC
:10123C000103002B40D07B685B68012B07D1474B27
:10124C001B6803F40033002B15D101237FE07B686E
:10125C005B68022B07D1414B1B6803F00073002B1A
:10126C0009D1012373E03D4B1B6803F00203002BF3
:10127C0001D101236BE0394B5B6823F003027B68DF
:10128C005B68364913434B60FFF704FAF8600AE0D9
:10129C00FFF700FA0246FB68D31A41F288329342F8
:1012AC0001D9032353E02D4B5B6803F00C027B68E0
:1012BC005B689B009A42EBD1274B1B6803F007033A
:1012CC003A689A4210D2244B1B6823F00702224939
:1012DC003B6813430B60204B1B6803F007033A6811
:1012EC009A4201D0012332E07B681B6803F00403AF
:1012FC00002B08D0194B5B6823F4E0627B68DB6839
:10130C00164913434B607B681B6803F00803002BE2
:10131C0009D0124B5B6823F460527B681B69DB00BD
:10132C000E4913434B6000F021F802460B4B5B68EF
:10133C001B0903F00F030A49CB5C22FA03F3094A99
:10134C001360094B1B681846FFF762F90023184617
:10135C001037BD4680BD00BF002002400010024087
:10136C00F4140008580000205C00002090B48AB0EF
:10137C0000AF294B3C1D0FCB84E80F0040F201233A
:10138C003B800023FB610023BB6100237B620023B5
:10139C007B6100233B62214B5B68FB61FB6903F0C3
:1013AC000C03042B02D0082B03D02BE01C4B3B620C
:1013BC002BE0FB699B0C03F00F0328333B4413F821
:1013CC00243C7B61FB6903F48033002B12D0134B5C
:1013DC005B685B0C03F0010328333B4413F8283C97
:1013EC00BB617B690E4A03FB02F2BB69B2FBF3F3F0
:1013FC007B6204E07B690B4A02FB03F37B627B6A32
:10140C003B6202E0084B3B6200BF3B6A1846283740
:10141C00BD4690BC704700BFE414000800100240A9
:10142C00404B4C0000093D0000127A0080B485B09E
:10143C0000AF78600A4B1B680A4AA2FB03235B0AC5
:10144C007A6802FB03F3FB6000BFFB685A1EFA606C
:10145C00002BF9D100BF00BF1437BD4680BC7047CC
:10146C0058000020D34D621003460244934200D131
:10147C00704703F8011BF9E770B500260C4D0D4CB5
:10148C00641BA410A64209D100F01AF800260A4DDC
:10149C000A4C641BA410A64205D170BD55F8043B40
:1014AC0098470136EEE755F8043B98470136F2E7CA
:1014BC000415000804150008041500080815000898
:1014CC00F8B500BFF8BC08BC9E467047F8B500BF25
:0814DC00F8BC08BC9E467047F5
:1014E40002030405060708090A0B0C0D0E0F101061
:1014F40000000000000000000102030406070809C0
:0415040031010008A9
:041508000D010008C9
:10150C0001010101010100000101000000000101C5
:10151C0000010100010101010100000100010100B5
:10152C0000010101000101000101010001010101A3
:10153C000101010100000000010101010101010193
:10154C00010101000101000001000200040008007B
:10155C0010002000400000000024F40010000000E7
:04156C00010000007A
:04000005080005A545
:00000001FF
