:020000040800F2
:10000000002800208109000841080008490800086C
:1000100051080008590800086108000800000000A5
:100020000000000000000000000000006908000857
:100030007508000800000000810800088D0800080D
:10004000C9090008C9090008C9090008C909000848
:10005000C9090008C9090008C9090008C909000838
:10006000C9090008C9090008C9090008C909000828
:10007000C9090008C9090008C9090008C909000818
:10008000C9090008C9090008C9090008C909000808
:10009000C9090008C9090008C9090008C9090008F8
:1000A000C9090008C9090008C9090008C9090008E8
:1000B00099080008C909000800000000C9090008E3
:1000C000C90900080000000000000000C90900087C
:1000D00000000000C9090008C9090008000000006C
:1000E000C9090008C9090008C90900080000000082
:1000F0000000000000000000000000000000000000
:0C01000000000000000000005FF808F1A3
:10010C0010B5054C237833B9044B13B10448AFF345
:10011C0000800123237010BD84000020000000002B
:10012C00B428000808B5034B1BB103490348AFF3CF
:10013C00008008BD0000000088000020B4280008E2
:10014C00034613F8012B002AFBD1181A013870470B
:10015C00B0B58AB000AFF860B9607A603B6097F8D0
:10016C00443087F82630B7F84030BB84FB6B3B62D9
:10017C003B8FBB833B68BB617B687B61BB683B612E
:10018C0007F11003184600F00EF8FB681D4607F146
:10019C0010040FCC0FC594E8030085E80300F86841
:1001AC002837BD46B0BD80B582B000AF78607B68A3
:1001BC009B7D002B0CD13321786800F057F832214D
:1001CC00786800F053F82821786800F04FF803E0C5
:1001DC003821786800F04AF80121786800F046F878
:1001EC000C21786800F042F80621786800F03EF89F
:1001FC0000BF0837BD4680BD90B585B000AF7860B4
:10020C0039600023FB730AE0FB7B3A6813441B78CC
:10021C001946786800F058F8FB7B0133FB73FC7BC4
:10022C003868FFF78DFF03469C42EDD300BF00BF3B
:10023C001437BD4690BD000080B582B000AF786029
:10024C000B46FB701346BB70FB78074AD25CBB783D
:10025C001344DBB2803BDBB21946786800F006F839
:10026C0000BF0837BD4680BD3829000880B582B074
:10027C0000AF78600B46FB707B6898687B689B8945
:10028C000022194600F0C3FE7B689B7D002B11D128
:10029C00FB781B09DBB204221946786800F042F89F
:1002AC00FB7803F00F03DBB204221946786800F0E8
:1002BC0039F805E0FB7808221946786800F032F826
:1002CC0000BF0837BD4680BD80B582B000AF7860F6
:1002DC000B46FB707B6898687B689B8901221946EA
:1002EC0000F095FE7B689B7D002B11D1FB781B09E0
:1002FC00DBB204221946786800F014F8FB7803F09E
:10030C000F03DBB204221946786800F00BF805E005
:10031C00FB7808221946786800F004F800BF08370B
:10032C00BD4680BD80B584B000AF78600B46FB70D5
:10033C001346BB700023FB7319E07B681A68FB7BC8
:10034C009B00134418687B685A68FB7B5B00134462
:10035C001988FA78FB7B42FA03F3DBB203F0010352
:10036C00DBB21A4600F053FEFB7B0133FB73FA7BC6
:10037C00BB789A42E1D37B6818697B689B8A01221F
:10038C00194600F044FE012000F07CFB7B681869E4
:10039C007B689B8A0022194600F039FE00BF10379B
:1003AC00BD4680BDF0B591B004AF00F009FB00F084
:1003BC00B9F800F049F900F0F9F8494B1C68494BC1
:1003CC001B88494A126849490988494E3846002514
:1003DC0003950291019200932346464A4649FFF742
:1003EC00B7FE35463C460FCC0FC594E8030085E8B4
:1003FC0003003F48FFF7D7FE002200213C48FFF7DF
:10040C001BFF3E493A48FFF7F7FE3D4801F045FA1D
:10041C0002213C4800F0E4FD0346002B22D13A4B6C
:10042C0000221A70394B0F221A7000220421354811
:10043C0000F0EDFD00220821324800F0E8FD00221A
:10044C0000212B48FFF7F8FE31492948FFF7D4FE6D
:10045C00002201212648FFF7EFFE2E492448FFF722
:10046C00CBFE39E0284B01221A70284B93F900304F
:10047C00002B13D101220421224800F0C8FD0122D7
:10048C000821204800F0C3FD002200211848FFF786
:10049C00D3FE21491648FFF7AFFE08E000220021E9
:1004AC001348FFF7C9FE1D491148FFF7A5FE174B6E
:1004BC0093F900301A4607F11C031949184601F04C
:1004CC0043FD002201210A48FFF7B6FE07F11C0389
:1004DC0019460748FFF790FE322000F0D3FA97E751
:1004EC00180000201C000020200000202400002008
:1004FC00E00000201000002000000020CC280008A4
:10050C00A000002000080140F80000202600002078
:10051C00DC280008E8280008F4280008082900084E
:10052C001829000880B590B000AF07F118032822F5
:10053C000021184601F02AFD3B1D00221A605A606A
:10054C009A60DA601A610123BB614FF48033FB615E
:10055C0000233B620123BB6202237B634FF4803395
:10056C00BB634FF48023FB6307F11803184600F0BC
:10057C007FFD0346002B01D000F000F90F237B60B8
:10058C000223BB600023FB6000233B6100237B61E3
:10059C003B1D0021184600F0EDFF0346002B01D057
:1005AC0000F0ECF800BF4037BD4680BD80B586B08A
:1005BC0000AF07F1080300221A605A609A60DA60F3
:1005CC003B4600221A605A601E4B4FF080421A6064
:1005DC001C4B43F697225A601A4B00229A60194B17
:1005EC0040F2E732DA60174B00221A61154B0022F9
:1005FC009A61144801F026F90346002B01D000F053
:10060C00BDF84FF48053BB6007F1080319460D4841
:10061C0001F06EFA0346002B01D000F0AFF8002376
:10062C003B6000237B603B461946064801F036FCD4
:10063C000346002B01D000F0A1F800BF1837BD46CF
:10064C0080BD00BFA000002080B588B000AF07F1CE
:10065C00100300221A605A609A60DA602D4B9B6975
:10066C002C4A43F0200393612A4B9B6903F020032F
:10067C00FB60FB68274B9B69264A43F0040393619C
:10068C00244B9B6903F00403BB60BB68214B9B6943
:10069C00204A43F0080393611E4B9B6903F0080347
:1006AC007B607B6800220C211B4800F0B0FC002210
:1006BC0041F60741194800F0AAFC02233B610023D4
:1006CC007B610023BB6107F110031946124800F04F
:1006DC000BFB0C233B6101237B610023BB610223D9
:1006EC00FB6107F1100319460B4800F0FDFA41F6C7
:1006FC0007433B6101237B610023BB610223FB6148
:10070C0007F110031946054800F0EEFA00BF203738
:10071C00BD4680BD0010024000080140000C0140A5
:10072C0080B582B000AF78607B681B68B3F1804FF6
:10073C0019D10F4B1B78012B15D10E4B93F90030AF
:10074C00002B10DD0B4B93F90030DBB2013BDBB21D
:10075C005AB2084B1A700421074800F070FC0821AB
:10076C00054800F06CFC00BF0837BD4680BD00BFDB
:10077C00F8000020260000200008014080B400AFE3
:10078C0072B600BF00BFFDE780B485B000AF154B5B
:10079C009B69144A43F001039361124B9B6903F06C
:1007AC000103BB60BB680F4BDB690E4A43F08053FF
:1007BC00D3610C4BDB6903F080537B607B680A4B85
:1007CC005B68FB60FB6823F0E063FB60FB6843F055
:1007DC008063FB60044AFB68536000BF1437BD465E
:1007EC0080BC7047001002400000014080B584B00E
:1007FC0000AF78607B681B68B3F1804F13D10C4B52
:10080C00DB690B4A43F00103D361094BDB6903F04D
:10081C000103FB60FB68002200211C2000F02DFA74
:10082C001C2000F046FA00BF1037BD4680BD00BF4B
:10083C000010024080B400AF00BFFDE780B400AFF1
:10084C0000BFFDE780B400AF00BFFDE780B400AF90
:10085C0000BFFDE780B400AF00BFFDE780B400AF80
:10086C0000BFBD4680BC704780B400AF00BFBD4622
:10087C0080BC704780B400AF00BFBD4680BC7047E1
:10088C0080B500AF00F0E2F800BF80BD80B500AFCE
:10089C00024801F025F800BF80BD00BFA000002079
:1008AC0080B586B000AF7860144A154BD31A7B61C3
:1008BC007B693B61134B1B68002B02D1114B124A15
:1008CC001A60104B1A687B6813443A699A4207D233
:1008DC0001F064FB03460C221A604FF0FF3309E071
:1008EC00084B1B68FB60074B1A687B681344054A6E
:1008FC001360FB6818461837BD4680BD00280020E1
:10090C0000040000FC0000205002002080B400AF66
:10091C00154B1B68144A43F001031360124B5A68C1
:10092C001149124B13404B600F4B1B680E4A23F0BE
:10093C00847323F4803313600B4B1B680A4A23F433
:10094C0080231360084B5B68074A23F4FE03536053
:10095C00054B4FF41F029A60054B4FF000629A60F2
:10096C0000BFBD4680BC7047001002400000FFF87D
:10097C0000ED00E0002103E00B4B5B5843500431C9
:10098C000A480B4B42189A42F6D30A4A02E000235B
:10099C0042F8043B084B9A42F9D3FFF7B7FF01F03A
:1009AC0003FBFFF7FFFC70479029000800000020B4
:1009BC0084000020840000204C020020FEE7000090
:1009CC0080B500AF084B1B68074A43F01003136057
:1009DC00032000F047F90F2000F008F8FFF7D4FED1
:1009EC000023184680BD00BF0020024080B582B0B5
:1009FC0000AF7860124B1A68124B1B7819464FF4F3
:100A0C007A73B3FBF1F3B2FBF3F3184600F05FF922
:100A1C000346002B01D001230EE07B680F2B0AD874
:100A2C00002279684FF0FF3000F027F9064A7B6806
:100A3C001360002300E0012318460837BD4680BD33
:100A4C0028000020300000202C00002080B400AFD3
:100A5C00054B1B781A46054B1B681344034A13605D
:100A6C0000BFBD4680BC7047300000200001002054
:100A7C0080B400AF024B1B681846BD4680BC704763
:100A8C000001002080B584B000AF7860FFF7F0FF64
:100A9C00B8607B68FB60FB68B3F1FF3F05D00A4B85
:100AAC001B781A46FB681344FB6000BFFFF7E0FF9E
:100ABC000246BB68D31AFA689A42F7D800BF00BF47
:100ACC001037BD4680BD00BF3000002080B485B01B
:100ADC0000AF78607B6803F00703FB600C4BDB68AE
:100AEC00BB60BA684FF6FF031340BB60FB681A0289
:100AFC00BB68134343F0BF6343F40033BB60044A49
:100B0C00BB68D36000BF1437BD4680BC704700BFC4
:100B1C0000ED00E080B400AF044BDB681B0A03F06F
:100B2C0007031846BD4680BC704700BF00ED00E0CF
:100B3C0080B483B000AF0346FB7197F90730002BEC
:100B4C000BDBFB7903F01F02064997F907305B09B1
:100B5C00012000FA02F241F8232000BF0C37BD46F9
:100B6C0080BC704700E100E080B483B000AF034666
:100B7C003960FB7197F90730002B0ADB3B68DAB25E
:100B8C000C4997F907301201D2B20B4483F80023B9
:100B9C000AE03B68DAB20849FB7903F00F03043B27
:100BAC001201D2B20B441A7600BF0C37BD4680BC82
:100BBC00704700BF00E100E000ED00E080B489B0B8
:100BCC0000AFF860B9607A60FB6803F00703FB6163
:100BDC00FB69C3F10703042B28BF0423BB61FB692A
:100BEC000433062B02D9FB69033B00E000237B6135
:100BFC004FF0FF32BB6902FA03F3DA43BB681A40C9
:100C0C007B699A404FF0FF317B6901FA03F3D943BA
:100C1C007B680B40134318462437BD4680BC704795
:100C2C0080B582B000AF78607B68013BB3F1807F08
:100C3C0001D301230FE00A4A7B68013B53600F216B
:100C4C004FF0FF30FFF790FF054B00229A60044BEA
:100C5C0007221A60002318460837BD4680BD00BF26
:100C6C0010E000E080B582B000AF78607868FFF7E4
:100C7C002DFF00BF0837BD4680BD80B586B000AFE4
:100C8C000346B9607A60FB7300237B61FFF742FF78
:100C9C0078617A68B9687869FFF790FF024697F92E
:100CAC000F3011461846FFF75FFF00BF1837BD46DF
:100CBC0080BD80B582B000AF0346FB7197F9073059
:100CCC001846FFF735FF00BF0837BD4680BD80B51D
:100CDC0082B000AF78607868FFF7A2FF0346184631
:100CEC000837BD4680BD000080B48BB000AF786083
:100CFC00396000237B6200233B6261E101227B6A45
:100D0C0002FA03F3FB613B681B68FA691340BB6191
:100D1C00BA69FB699A4240F050813B685B68974A1C
:100D2C0093425ED0954A934275D8954A934258D0D7
:100D3C00934A93426FD8934A934252D0914A93422A
:100D4C0069D8914A93424CD08F4A934263D88F4AC8
:100D5C00934246D08D4A93425DD8122B2AD8122B3F
:100D6C0059D801A252F823F0EF0D0008C90D000864
:100D7C00DB0D00081D0E0008230E0008230E0008D2
:100D8C00230E0008230E0008230E0008230E000873
:100D9C00230E0008230E0008230E0008230E000863
:100DAC00230E0008230E0008230E0008D10D0008A6
:100DBC00E50D0008764A934213D02CE03B68DB68C3
:100DCC003B6229E03B68DB6804333B6224E03B6810
:100DDC00DB6808333B621FE03B68DB680C333B622B
:100DEC001AE03B689B68002B02D104233B6213E0A2
:100DFC003B689B68012B05D108233B627B68FA6931
:100E0C001A6109E008233B627B68FA695A6103E0C6
:100E1C0000233B6200E000BFBB69FF2B01D87B685D
:100E2C0001E07B6804337B61BB69FF2B02D87B6AD2
:100E3C009B0002E07B6A083B9B003B617B691A6864
:100E4C000F213B6901FA03F3DB431A40396A3B6912
:100E5C0001FA03F31A437B691A603B685B6803F081
:100E6C008053002B00F0A9804A4B9B69494A43F000
:100E7C0001039361474B9B6903F00103BB60BB68A3
:100E8C00454A7B6A9B08023352F82330FB607B6A2D
:100E9C0003F003039B000F2202FA03F3DB43FA680F
:100EAC001340FB607B683D4A93420DD07B683C4A03
:100EBC00934207D07B683B4A934201D1022304E062
:100ECC00032302E0012300E000237A6A02F003020C
:100EDC0092009340FA681343FB602F497B6A9B088E
:100EEC000233FA6841F823203B685B6803F48033D3
:100EFC00002B06D02C4B1A682B49BB6913430B6093
:100F0C0006E0294B1A68BB69DB43274913400B6089
:100F1C003B685B6803F40033002B06D0224B5A6805
:100F2C002149BB6913434B6006E01F4B5A68BB69F0
:100F3C00DB431D4913404B603B685B6803F4801333
:100F4C00002B06D0184B9A681749BB6913438B606A
:100F5C0006E0154B9A68BB69DB43134913408B6061
:100F6C003B685B6803F40013002B1FD00E4BDA6850
:100F7C000D49BB691343CB601FE000BF000032106A
:100F8C00000031100000221000002110000012108F
:100F9C000000111000100240000001400008014048
:100FAC00000C014000100140000401400B4BDA68BA
:100FBC00BB69DB4309491340CB607B6A01337B621D
:100FCC003B681A687B6A22FA03F3002B7FF496AE17
:100FDC0000BF00BF2C37BD4680BC704700040140E9
:100FEC0080B485B000AF78600B467B807B689A68D4
:100FFC007B881340002B02D00123FB7301E00023FC
:10100C00FB73FB7B18461437BD4680BC704780B41D
:10101C0083B000AF78600B467B8013467B707B7887
:10102C00002B03D07A887B681A6103E07B881A0452
:10103C007B681A6100BF0C37BD4680BC704780B41A
:10104C0083B000AF78600B467B807B68DA687B8866
:10105C001340002B03D07A887B685A6102E07A88AF
:10106C007B681A6100BF0C37BD4680BC704700001E
:10107C0080B586B000AF78607B68002B01D101236E
:10108C0072E27B681B6803F00103002B00F0878081
:10109C00924B5B6803F00C03042B0CD08F4B5B68FA
:1010AC0003F00C03082B12D18C4B5B6803F48033D8
:1010BC00B3F5803F0BD1894B1B6803F40033002B35
:1010CC006CD07B685B68002B68D101234CE27B6899
:1010DC005B68B3F5803F06D1804B1B687F4A43F4B5
:1010EC00803313602EE07B685B68002B0CD17B4B4C
:1010FC001B687A4A23F480331360784B1B68774A59
:10110C0023F4802313601DE07B685B68B3F5A02F8C
:10111C000CD1724B1B68714A43F4802313606F4BE4
:10112C001B686E4A43F4803313600BE06B4B1B68F7
:10113C006A4A23F480331360684B1B68674A23F4B4
:10114C00802313607B685B68002B13D0FFF790FC47
:10115C00386108E0FFF78CFC02463B69D31A642B1C
:10116C0001D9032300E25D4B1B6803F40033002B11
:10117C00F0D014E0FFF77CFC386108E0FFF778FC56
:10118C0002463B69D31A642B01D90323ECE1534B80
:10119C001B6803F40033002BF0D100E000BF7B6828
:1011AC001B6803F00203002B63D04C4B5B6803F00D
:1011BC000C03002B0BD0494B5B6803F00C03082B82
:1011CC001CD1464B5B6803F48033002B16D1434B88
:1011DC001B6803F00203002B05D07B681B69012BF5
:1011EC0001D00123C0E13D4B1B6823F0F8027B6862
:1011FC005B69DB00394913430B603AE07B681B6980
:10120C00002B20D0364B01221A60FFF731FC3861DD
:10121C0008E0FFF72DFC02463B69D31A022B01D9DB
:10122C000323A1E12D4B1B6803F00203002BF0D02C
:10123C002A4B1B6823F0F8027B685B69DB002749AB
:10124C0013430B6015E0264B00221A60FFF710FCCD
:10125C00386108E0FFF70CFC02463B69D31A022BFD
:10126C0001D9032380E11D4B1B6803F00203002B03
:10127C00F0D17B681B6803F00803002B3AD07B6825
:10128C009B69002B19D0174B01221A60FFF7F0FB5A
:10129C00386108E0FFF7ECFB02463B69D31A022BDE
:1012AC0001D9032360E10D4B5B6A03F00203002BB1
:1012BC00F0D0012000F0A8FA1CE00A4B00221A60C2
:1012CC00FFF7D6FB38610FE0FFF7D2FB02463B6914
:1012DC00D31A022B08D9032346E100BF00100240A9
:1012EC000000424280044242924B5B6A03F00203CC
:1012FC00002BE9D17B681B6803F00403002B00F082
:10130C00A6800023FB758B4BDB6903F08053002B0D
:10131C000DD1884BDB69874A43F08053D361854BF1
:10132C00DB6903F08053BB60BB680123FB75824B08
:10133C001B6803F48073002B18D17F4B1B687E4A0B
:10134C0043F480731360FFF793FB386108E0FFF7F9
:10135C008FFB02463B69D31A642B01D9032303E1AB
:10136C00754B1B6803F48073002BF0D07B68DB6833
:10137C00012B06D16F4B1B6A6E4A43F001031362BB
:10138C002DE07B68DB68002B0CD16A4B1B6A694A29
:10139C0023F001031362674B1B6A664A23F00403B4
:1013AC0013621CE07B68DB68052B0CD1614B1B6A5C
:1013BC00604A43F0040313625E4B1B6A5D4A43F0C0
:1013CC00010313620BE05B4B1B6A5A4A23F00103C7
:1013DC001362584B1B6A574A23F0040313627B6851
:1013EC00DB68002B15D0FFF743FB38610AE0FFF7F1
:1013FC003FFB02463B69D31A41F28832934201D932
:10140C000323B1E04B4B1B6A03F00203002BEED01D
:10141C0014E0FFF72DFB38610AE0FFF729FB0246C9
:10142C003B69D31A41F28832934201D903239BE0E2
:10143C00404B1B6A03F00203002BEED1FB7D012B0A
:10144C0005D13C4BDB693B4A23F08053D3617B686D
:10145C00DB69002B00F08780364B5B6803F00C03D4
:10146C00082B61D07B68DB69022B46D1334B002201
:10147C001A60FFF7FDFA386108E0FFF7F9FA024647
:10148C003B69D31A022B01D903236DE0294B1B684E
:10149C0003F00073002BF0D17B681B6AB3F5803F1F
:1014AC0008D1244B5B6823F400327B689B6821498C
:1014BC0013434B601F4B5B6823F474127B68196AEF
:1014CC007B685B6A0B431B4913434B601B4B01222C
:1014DC001A60FFF7CDFA386108E0FFF7C9FA024647
:1014EC003B69D31A022B01D903233DE0114B1B6836
:1014FC0003F00073002BF0D035E0104B00221A6083
:10150C00FFF7B6FA386108E0FFF7B2FA02463B691A
:10151C00D31A022B01D9032326E0064B1B6803F0D8
:10152C000073002BF0D11EE07B68DB69012B07D127
:10153C00012319E00010024000700040600042429C
:10154C000B4B5B68FB60FB6803F480327B681B6AA7
:10155C009A4206D1FB6803F470127B685B6A9A426C
:10156C0001D0012300E0002318461837BD4680BD8A
:10157C000010024080B584B000AF786039607B68A1
:10158C00002B01D10123D0E06A4B1B6803F0070349
:10159C003A689A4210D9674B1B6823F007026549D9
:1015AC003B6813430B60634B1B6803F007033A68FB
:1015BC009A4201D00123B8E07B681B6803F0020358
:1015CC00002B20D07B681B6803F00403002B05D094
:1015DC00594B5B68584A43F4E06353607B681B6863
:1015EC0003F00803002B05D0534B5B68524A43F4BD
:1015FC0060535360504B5B6823F0F0027B689B6830
:10160C004D4913434B607B681B6803F00103002BAF
:10161C0040D07B685B68012B07D1474B1B6803F4F8
:10162C000033002B15D101237FE07B685B68022B14
:10163C0007D1414B1B6803F00073002B09D1012328
:10164C0073E03D4B1B6803F00203002B01D1012317
:10165C006BE0394B5B6823F003027B685B683649AF
:10166C0013434B60FFF704FAF8600AE0FFF700FA47
:10167C000246FB68D31A41F28832934201D9032304
:10168C0053E02D4B5B6803F00C027B685B689B009E
:10169C009A42EBD1274B1B6803F007033A689A4236
:1016AC0010D2244B1B6823F0070222493B681343DA
:1016BC000B60204B1B6803F007033A689A4201D079
:1016CC00012332E07B681B6803F00403002B08D075
:1016DC00194B5B6823F4E0627B68DB6816491343A3
:1016EC004B607B681B6803F00803002B09D0124B7E
:1016FC005B6823F460527B681B69DB000E49134363
:10170C004B6000F021F802460B4B5B681B0903F0A1
:10171C000F030A49CB5C22FA03F3094A1360094B05
:10172C001B681846FFF762F9002318461037BD46B0
:10173C0080BD00BF00200240001002403C29000880
:10174C00280000202C00002090B48AB000AF294B58
:10175C003C1D0FCB84E80F0040F201233B8000239B
:10176C00FB610023BB6100237B6200237B610023B0
:10177C003B62214B5B68FB61FB6903F00C03042BA0
:10178C0002D0082B03D02BE01C4B3B622BE0FB69F7
:10179C009B0C03F00F0328333B4413F8243C7B6170
:1017AC00FB6903F48033002B12D0134B5B685B0C8A
:1017BC0003F0010328333B4413F8283CBB617B69DD
:1017CC000E4A03FB02F2BB69B2FBF3F37B6204E04B
:1017DC007B690B4A02FB03F37B627B6A3B6202E090
:1017EC00084B3B6200BF3B6A18462837BD4690BC8D
:1017FC00704700BF2829000800100240404B4C00E5
:10180C0000093D0000127A0080B485B000AF78600A
:10181C000A4B1B680A4AA2FB03235B0A7A6802FB89
:10182C0003F3FB6000BFFB685A1EFA60002BF9D172
:10183C0000BF00BF1437BD4680BC70472800002095
:10184C00D34D621080B582B000AF78607B68002BFE
:10185C0001D101231DE07B6893F83D30DBB2002BF6
:10186C0006D17B68002283F83C207868FEF7BEFF27
:10187C007B68022283F83D207B681A687B680433FE
:10188C001946104600F01CFA7B68012283F83D20B3
:10189C00002318460837BD4680BD80B485B000AF24
:1018AC0078607B681B68DA687B681B6842F0010211
:1018BC00DA607B681B689B6803F00703FB60FB68BE
:1018CC00062B07D07B681B681A687B681B6842F084
:1018DC0001021A60002318461437BD4680BC7047BD
:1018EC0080B582B000AF78607B681B681B6903F021
:1018FC000203022B22D17B681B68DB6803F0020316
:10190C00022B1BD17B681B686FF002021A617B688B
:10191C0001221A777B681B689B6903F00303002B79
:10192C0003D0786800F0B1F905E0786800F0A4F90C
:10193C00786800F0B3F97B6800221A777B681B6823
:10194C001B6903F00403042B22D17B681B68DB6842
:10195C0003F00403042B1BD17B681B686FF004029B
:10196C001A617B6802221A777B681B689B6903F4F7
:10197C004073002B03D0786800F087F905E0786895
:10198C0000F07AF9786800F089F97B6800221A7700
:10199C007B681B681B6903F00803082B22D17B684A
:1019AC001B68DB6803F00803082B1BD17B681B68E2
:1019BC006FF008021A617B6804221A777B681B6837
:1019CC00DB6903F00303002B03D0786800F05DF9AA
:1019DC0005E0786800F050F9786800F05FF97B68F2
:1019EC0000221A777B681B681B6903F01003102B0D
:1019FC0022D17B681B68DB6803F01003102B1BD112
:101A0C007B681B686FF010021A617B6808221A77DA
:101A1C007B681B68DB6903F44073002B03D0786888
:101A2C0000F033F905E0786800F026F9786800F0EA
:101A3C0035F97B6800221A777B681B681B6903F0F9
:101A4C000103012B0ED17B681B68DB6803F00103DB
:101A5C00012B07D17B681B686FF001021A61786853
:101A6C00FEF75EFE7B681B681B6903F08003802B0E
:101A7C000ED17B681B68DB6803F08003802B07D1D9
:101A8C007B681B686FF080021A61786800F053FA6B
:101A9C007B681B681B6903F04003402B0ED17B68ED
:101AAC001B68DB6803F04003402B07D17B681B6885
:101ABC006FF040021A61786800F0F9F87B681B68D7
:101ACC001B6903F02003202B0ED17B681B68DB689D
:101ADC0003F02003202B07D17B681B686FF02002DA
:101AEC001A61786800F01EFA00BF0837BD4680BD49
:101AFC0080B584B000AF786039607B6893F83C3077
:101B0C00012B01D10223B3E07B68012283F83C2036
:101B1C007B68022283F83D207B681B689B68FB6016
:101B2C00FB6823F07703FB60FB6823F47F43FB60C7
:101B3C007B681B68FA689A603B681B68B3F5005FAA
:101B4C003ED0B3F5005F00F28780B3F5805F00F004
:101B5C008580B3F5805F7FD8702B1AD0702B7BD823
:101B6C00602B50D0602B77D8502B3CD0502B73D897
:101B7C00402B58D0402B6FD8302B64D0302B6BD8E7
:101B8C00202B60D0202B67D8002B5CD0102B5AD088
:101B9C0062E07B6818683B6899683B685A683B68E8
:101BAC00DB6800F05CF97B681B689B68FB60FB687A
:101BBC0043F07703FB607B681B68FA689A604EE021
:101BCC007B6818683B6899683B685A683B68DB68B7
:101BDC0000F045F97B681B689A687B681B6842F4C7
:101BEC0080429A603BE07B6818683B6859683B68A8
:101BFC00DB681A4600F0BCF87B681B68502118465D
:101C0C0000F013F92BE07B6818683B6859683B6857
:101C1C00DB681A4600F0DAF87B681B68602118460E
:101C2C0000F003F91BE07B6818683B6859683B6857
:101C3C00DB681A4600F09CF87B681B68402118464C
:101C4C0000F0F3F80BE07B681A683B681B681946D8
:101C5C00104600F0EAF802E000BF00E000BF7B682D
:101C6C00012283F83D207B68002283F83C2000236E
:101C7C0018461037BD4680BD80B483B000AF786085
:101C8C0000BF0C37BD4680BC704780B483B000AF3A
:101C9C00786000BF0C37BD4680BC704780B483B001
:101CAC0000AF786000BF0C37BD4680BC704780B475
:101CBC0083B000AF786000BF0C37BD4680BC704766
:101CCC0080B485B000AF786039607B681B68FB60BE
:101CDC007B68254A934207D07B68B3F1804F03D0D1
:101CEC007B68224A934208D1FB6823F07003FB60A7
:101CFC003B685B68FA681343FB607B681A4A934243
:101D0C0007D07B68B3F1804F03D07B68174A9342AE
:101D1C0008D1FB6823F44073FB603B68DB68FA680E
:101D2C001343FB60FB6823F080023B685B69134341
:101D3C00FB607B68FA681A603B689A687B68DA62B9
:101D4C003B681A687B689A627B68074A934203D1A6
:101D5C003B681A697B681A637B6801225A6100BF71
:101D6C001437BD4680BC7047002C01400004004075
:101D7C0080B487B000AFF860B9607A60FB681B6A0A
:101D8C007B61FB681B6A23F00102FB681A62FB682B
:101D9C009B693B613B6923F0F0033B617B681B0152
:101DAC003A6913433B617B6923F00A037B617A69CF
:101DBC00BB6813437B61FB683A699A61FB687A697B
:101DCC001A6200BF1C37BD4680BC704780B487B018
:101DDC0000AFF860B9607A60FB681B6A23F01002F0
:101DEC00FB681A62FB689B697B61FB681B6A3B6141
:101DFC007B6923F470437B617B681B037A69134313
:101E0C007B613B6923F0A0033B61BB681B013A6912
:101E1C0013433B61FB687A699A61FB683A691A6201
:101E2C0000BF1C37BD4680BC704780B485B000AF86
:101E3C00786039607B689B68FB60FB6823F07003FB
:101E4C00FB603A68FB68134343F00703FB607B6855
:101E5C00FA689A6000BF1437BD4680BC704780B4E6
:101E6C0087B000AFF860B9607A603B60FB689B6834
:101E7C007B617B6923F47F437B613B681A027B683F
:101E8C001A43BB6813437A6913437B61FB687A6915
:101E9C009A6000BF1C37BD4680BC704780B485B0CB
:101EAC0000AF786039607B6893F83C30012B01D12E
:101EBC00022332E07B68012283F83C207B680222FB
:101ECC0083F83D207B681B685B68FB607B681B6844
:101EDC009B68BB60FB6823F07003FB603B681B686E
:101EEC00FA681343FB60BB6823F08003BB603B685C
:101EFC005B68BA681343BB607B681B68FA685A60FE
:101F0C007B681B68BA689A607B68012283F83D2065
:101F1C007B68002283F83C20002318461437BD460A
:101F2C0080BC704780B483B000AF786000BF0C37C2
:101F3C00BD4680BC704780B483B000AF786000BFF2
:101F4C000C37BD4680BC70470EB46FF0004110B525
:101F5C0000249DB01FAB0290069007910491094894
:101F6C00094953F8042B0591006802A901931B94AD
:101F7C0000F092F9029B1C701DB0BDE8104003B03C
:101F8C00704700BF340000200802FFFF03460244E4
:101F9C00934200D1704703F8011BF9E7014B186815
:101FAC00704700BF3400002070B500260C4D0D4C5E
:101FBC00641BA410A64209D100F076FC00260A4D41
:101FCC000A4C641BA410A64205D170BD55F8043B05
:101FDC0098470136EEE755F8043B98470136F2E78F
:101FEC008829000888290008882900088C290008FD
:101FFC007047704738B50546002940D051F8043C6D
:10200C000C1F002BB8BFE41800F0DEF81C4A136854
:10201C0033B9636014602846BDE8384000F0DAB884
:10202C00A34208D9206821188B4201BF19685B684C
:10203C0009182160EDE71A465B680BB1A342FAD987
:10204C0011685018A0420BD12068014450188342EB
:10205C001160E0D118685B68084410605360DAE7DF
:10206C0002D90C232B60D6E7206821188B4201BFC4
:10207C0019685B680918216063605460CBE738BD50
:10208C004802002070B50F4E0C463168054611B958
:10209C0000F0A8FB30602146284600F0A3FB431C4F
:1020AC0003D14FF0FF34204670BDC41C24F0030450
:1020BC00A042F8D0211A284600F094FB0130F2D14E
:1020CC00EFE700BF440200202DE9F843CD1C25F0BA
:1020DC00030508350C2D38BF0C25002D064601DBF9
:1020EC00A94204D90C2333600020BDE8F883DFF843
:1020FC00D48000F069F8D8F800301C4644BB29465F
:10210C003046FFF7BFFF431C044658D1D8F80040B7
:10211C002746002F43D1002C4BD02368394630463C
:10212C0004EB030900F05EFB814542D12168304687
:10213C006D1A2946FFF7A6FF01303AD023682B44CD
:10214C002360D8F800305A6862BBC8F800700FE002
:10215C002268521B20D40B2A17D96119A34225607F
:10216C0018BF5960636808BFC8F8001062514B6013
:10217C00304600F02FF804F10B00231D20F007006F
:10218C00C21A1CBF1B1AA350AFE76268A3420CBF54
:10219C00C8F800205A60EBE723466468AEE73C467B
:1021AC007F68B6E71A465B68A342FBD100235360F5
:1021BC00DEE70C233046336000F00CF894E7056042
:1021CC00D6E700BF480200200148FFF711BF00BF4F
:1021DC00400200200148FFF70CBF00BF4002002066
:1021EC002DE9F0471F468E688246BE420C4690464B
:1021FC000B682DD8B1F90C2012F4906F26D06569BC
:10220C00096905EB4505A3EB010905EBD5757B1CAD
:10221C004B446D109D4238BF1D46530527D52946AA
:10222C00FFF752FF064660B34A46216900F0F8FA00
:10223C00A38923F4906343F08003A38126614E4469
:10224C0026603E466561A5EB0905A560BE4200D936
:10225C003E4632464146206800F0AAFA0020A368A8
:10226C009B1BA360236833442360BDE8F0872A4698
:10227C0000F0E4FA06460028E0D150462169FFF749
:10228C00B9FE0C23CAF80030A3894FF0FF3043F09D
:10229C004003A381E9E700002DE9F04F98468B89B4
:1022AC0007461B060D4614469DB010D50B6973B935
:1022BC004021FFF709FF2860286130B90C233B60EF
:1022CC004FF0FF301DB0BDE8F08F40236B61002351
:1022DC00099320238DF8293030234FF00109CDF8D4
:1022EC000C80DFF898818DF82A3023469A4613F833
:1022FC00012B0AB1252AF9D1BAEB040B0BD05B46A2
:10230C00224629463846FFF76BFF013000F0A780C4
:10231C00099A5A4409929AF80030002B00F09F80D9
:10232C0000234FF0FF32CDE905230AF1010A049393
:10233C0007938DF853301A935446052214F8011B59
:10234C004E4800F05FFA049AD8B9D00644BF202357
:10235C008DF85330110744BF2B238DF853309AF866
:10236C0000302A2B15D0544600204FF00A0C079A47
:10237C00214611F8013B303B092B4BD9B0B10792E8
:10238C0014E0A0EB080309FA03F31343A2460493E9
:10239C00D2E7039B191D1B680391002BBBBF5B424B
:1023AC0042F0020207930793B8BF049223782E2BB6
:1023BC000AD163782A2B32D1039B02341A1D1B6875
:1023CC00039243EAE3730593DFF8B4A0032250466B
:1023DC00217800F017FA38B14022049BA0EB0A00D8
:1023EC00824013430134049314F8011B0622254840
:1023FC008DF8281000F006FA002836D0224B1BBBB3
:10240C00039B073323F0070308330393099B3344DF
:10241C0009936AE70C4601200CFB0232A8E7002363
:10242C004FF00A0C194601340593204610F8012B85
:10243C00303A092A03D9002BC6D00591C4E70446CB
:10244C0001230CFB0121F0E703AB00932A4638462D
:10245C000E4B04A9AFF30080421C0646D6D1AB89C3
:10246C005B063FF52DAF09982CE703AB00932A468A
:10247C003846064B04A900F07DF8EDE74C2900081E
:10248C00522900085629000800000000ED21000820
:10249C002DE9F047164698468A680B690746934221
:1024AC00B8BF1346336091F843200C46DDF82090FA
:1024BC000AB1013333602368990642BF3368023393
:1024CC003360256815F0060506D104F1190AE36896
:1024DC0032689B1AAB422BDC94F843302268003BE9
:1024EC0018BF0123920630D44146384604F143020A
:1024FC00C847013023D02368226903F00603042B5C
:10250C0014BF002533684FF0000608BFE56804F1DE
:10251C001A0408BFED1A54F8123C08BF25EAE575F9
:10252C009342C4BF9B1AED18B5421AD1002008E0A3
:10253C000123524641463846C847013003D14FF07B
:10254C00FF30BDE8F0870135C1E73020E11881F894
:10255C0043005A1C94F845102244023382F843106D
:10256C00C2E70123224641463846C8470130E6D02F
:10257C000136D9E72DE9FF470F7E9146782F80462B
:10258C000C469A460C9E01F1430207D8622F0AD8DA
:10259C00002F00F0D180582F00F0B88004F14206D3
:1025AC0084F842703AE0A7F16303152BF6D801A129
:1025BC0051F823F0192600082D260008A92500083B
:1025CC00A9250008A9250008A92500082D26000822
:1025DC00A9250008A9250008A9250008A925000897
:1025EC002B27000857260008E5260008A925000817
:1025FC00A92500084D270008A92500085726000822
:10260C00A9250008A9250008ED26000833681A1D25
:10261C001B68326004F1420684F8423001239CE0CE
:10262C0033682068191D3160060601D51D6803E06A
:10263C004506FBD5B3F90050002D03DA2D236D426E
:10264C0084F843300A23584811E02168336808069F
:10265C0053F8045B02D4490648BFADB26F2F336008
:10266C0014BF0A2308235048002184F843106668DD
:10267C00002EA66005DB21682E4321F004012160A9
:10268C004BD01646B5FBF3F103FB1157C75D06F8AB
:10269C00017D2F46BB420D46F4D9082B0BD1236884
:1026AC00DF0708D5236961689942DEBF302306F83D
:1026BC00013C06F1FF36921B22614B4621464046F7
:1026CC00CDF800A003AAFFF7E3FE01304AD14FF08A
:1026DC00FF3004B0BDE8F087236843F0200323608B
:1026EC007827324884F84570236831681F0651F802
:1026FC00045B02D45F0648BFADB23160D90744BF5A
:10270C0043F0200323601DB11023ADE72648E9E711
:10271C00236823F020032360F6E71646BDE73368F1
:10272C002568181D616930602E061B6801D519607B
:10273C0002E06806FBD51980002316462361BCE72E
:10274C00336800211A1D32601E686268304600F042
:10275C0059F808B1801B606063682361002384F81A
:10276C004330AAE73246494640462369D0470130F8
:10277C00ADD023689B0713D4E068039B9842B8BF85
:10278C001846A6E70123324649464046D047013059
:10279C009DD00135E36803995B1AAB42F2DCEBE7A1
:1027AC00002504F11906F5E75D2900086E290008DB
:1027BC00884210B501EB020402D98442234607D8A3
:1027CC00431EA14208D011F8012B03F8012FF8E7A2
:1027DC00014602448A4200D110BD13F8014D02F8A3
:1027EC00014DF7E738B50023054D044608462B602C
:1027FC00FEF756F8431C02D12B6803B1236038BD99
:10280C003C020020034610B5C9B20244934218465C
:10281C0001D1002003E0047801338C42F6D110BDC5
:10282C000A44914200F1FF3300D1704710B511F802
:10283C00014B914203F8014FF9D110BD2DE9F04144
:10284C00074614460D4621B91146BDE8F041FFF785
:10285C003BBC2AB9FFF7CEFB25462846BDE8F081E4
:10286C0000F01AF88442064602D8B4EB500FF4D8A4
:10287C0021463846FFF728FC804608B94546ECE768
:10288C00B4422246294628BF3246FFF7C9FF2946E3
:10289C003846FFF7AFFBF1E751F8043C181F002B4B
:1028AC00BCBF0B58C0187047F8B500BFF8BC08BCCB
:1028BC009E467047F8B500BFF8BC08BC9E467047F2
:1028CC0057452041524520524541445900000000D3
:1028DC006D6F64653A2072657365740074696D651B
:1028EC003A20313573000000636F756E74696E6742
:1028FC0020697320646F6E65203A44006D6F6465C7
:10290C003A20636F756E74696E67000074696D654B
:10291C003A202530326420736563000002030405FD
:10292C00060708090A0B0C0D0E0F10100040105072
:10293C000000000000000000010203040607080963
:10294C00232D302B2000686C4C006566674546478C
:10295C00003031323334353637383941424344450F
:10296C00460030313233343536373839616263647E
:04297C00656600008C
:08298000CCD7FF7F010000002D
:042988003101000811
:04298C000D01000831
:10299000000C0140000C0140000C0140000C014003
:1029A0000100020004000004000C014000080000C7
:1029B000000C014000100F000024F4001000000083
:1029C0000100000038000020000000000401002089
:1029D0006C010020D4010020000000000000000075
:1029E00000000000000000000000000000000000E7
:1029F00000000000000000000000000000000000D7
:102A000000000000000000000000000000000000C6
:042A100000000000C2
:040000050800098165
:00000001FF
